{
  "_format": "hh-sol-artifact-1",
  "contractName": "SimpleStorage2",
  "sourceName": "contracts/SimpleStorage2.sol",
  "abi": [
    {
      "inputs": [],
      "name": "number",
      "outputs": [
        {
          "internalType": "uint256",
          "name": "",
          "type": "uint256"
        }
      ],
      "stateMutability": "view",
      "type": "function"
    },
    {
      "inputs": [],
      "name": "retrieve",
      "outputs": [
        {
          "internalType": "uint256",
          "name": "",
          "type": "uint256"
        }
      ],
      "stateMutability": "view",
      "type": "function"
    },
    {
      "inputs": [
        {
          "internalType": "uint256",
          "name": "num",
          "type": "uint256"
        }
      ],
      "name": "store",
      "outputs": [],
      "stateMutability": "nonpayable",
      "type": "function"
    }
  ],
  "bytecode": "0x608060405234801561001057600080fd5b5061017f806100206000396000f3fe608060405234801561001057600080fd5b50600436106100415760003560e01c80632e64cec1146100465780636057361d146100645780638381f58a14610080575b600080fd5b61004e61009e565b60405161005b91906100d0565b60405180910390f35b61007e6004803603810190610079919061011c565b6100a7565b005b6100886100b1565b60405161009591906100d0565b60405180910390f35b60008054905090565b8060008190555050565b60005481565b6000819050919050565b6100ca816100b7565b82525050565b60006020820190506100e560008301846100c1565b92915050565b600080fd5b6100f9816100b7565b811461010457600080fd5b50565b600081359050610116816100f0565b92915050565b600060208284031215610132576101316100eb565b5b600061014084828501610107565b9150509291505056fea2646970667358221220f42cf8f6ecfdde56e30e24628be62f649cc6bd62a763febb3104d15208ae43d164736f6c63430008120033",
  "linkReferences": {},
  "deployedLinkReferences": {}
}